{
  "_format": "hh-sol-artifact-1",
  "contractName": "Tornado",
  "sourceName": "contracts/Tornado.sol",
  "abi": [
    {
      "inputs": [
        {
          "internalType": "address",
          "name": "_hasher",
          "type": "address"
        },
        {
          "internalType": "address",
          "name": "_verifier",
          "type": "address"
        }
      ],
      "stateMutability": "nonpayable",
      "type": "constructor"
    },
    {
      "inputs": [],
      "name": "DuplicateCommitmentHash",
      "type": "error"
    },
    {
      "inputs": [],
      "name": "IncorrectAmount",
      "type": "error"
    },
    {
      "inputs": [],
      "name": "ReentrancyGuardReentrantCall",
      "type": "error"
    },
    {
      "inputs": [],
      "name": "TreeFull",
      "type": "error"
    },
    {
      "anonymous": false,
      "inputs": [
        {
          "indexed": false,
          "internalType": "uint256",
          "name": "root",
          "type": "uint256"
        },
        {
          "indexed": false,
          "internalType": "uint256[10]",
          "name": "hashPairings",
          "type": "uint256[10]"
        },
        {
          "indexed": false,
          "internalType": "uint8[10]",
          "name": "pairDirection",
          "type": "uint8[10]"
        }
      ],
      "name": "Deposit",
      "type": "event"
    },
    {
      "anonymous": false,
      "inputs": [
        {
          "indexed": false,
          "internalType": "address",
          "name": "to",
          "type": "address"
        },
        {
          "indexed": false,
          "internalType": "uint256",
          "name": "nullifierHash",
          "type": "uint256"
        }
      ],
      "name": "Withdraw",
      "type": "event"
    },
    {
      "inputs": [
        {
          "internalType": "uint256",
          "name": "",
          "type": "uint256"
        }
      ],
      "name": "commitments",
      "outputs": [
        {
          "internalType": "bool",
          "name": "",
          "type": "bool"
        }
      ],
      "stateMutability": "view",
      "type": "function"
    },
    {
      "inputs": [],
      "name": "denomination",
      "outputs": [
        {
          "internalType": "uint256",
          "name": "",
          "type": "uint256"
        }
      ],
      "stateMutability": "view",
      "type": "function"
    },
    {
      "inputs": [
        {
          "internalType": "uint256",
          "name": "_commitment",
          "type": "uint256"
        }
      ],
      "name": "deposit",
      "outputs": [],
      "stateMutability": "payable",
      "type": "function"
    },
    {
      "inputs": [
        {
          "internalType": "uint8",
          "name": "",
          "type": "uint8"
        }
      ],
      "name": "lastLevelHash",
      "outputs": [
        {
          "internalType": "uint256",
          "name": "",
          "type": "uint256"
        }
      ],
      "stateMutability": "view",
      "type": "function"
    },
    {
      "inputs": [],
      "name": "nextLeafIdx",
      "outputs": [
        {
          "internalType": "uint256",
          "name": "",
          "type": "uint256"
        }
      ],
      "stateMutability": "view",
      "type": "function"
    },
    {
      "inputs": [
        {
          "internalType": "uint256",
          "name": "",
          "type": "uint256"
        }
      ],
      "name": "nullifierHashes",
      "outputs": [
        {
          "internalType": "bool",
          "name": "",
          "type": "bool"
        }
      ],
      "stateMutability": "view",
      "type": "function"
    },
    {
      "inputs": [
        {
          "internalType": "uint256",
          "name": "",
          "type": "uint256"
        }
      ],
      "name": "roots",
      "outputs": [
        {
          "internalType": "bool",
          "name": "",
          "type": "bool"
        }
      ],
      "stateMutability": "view",
      "type": "function"
    },
    {
      "inputs": [],
      "name": "treeLevel",
      "outputs": [
        {
          "internalType": "uint8",
          "name": "",
          "type": "uint8"
        }
      ],
      "stateMutability": "view",
      "type": "function"
    },
    {
      "inputs": [
        {
          "internalType": "uint256[2]",
          "name": "a",
          "type": "uint256[2]"
        },
        {
          "internalType": "uint256[2][2]",
          "name": "b",
          "type": "uint256[2][2]"
        },
        {
          "internalType": "uint256[2]",
          "name": "c",
          "type": "uint256[2]"
        },
        {
          "internalType": "uint256[2]",
          "name": "input",
          "type": "uint256[2]"
        }
      ],
      "name": "withdraw",
      "outputs": [],
      "stateMutability": "payable",
      "type": "function"
    }
  ],
  "bytecode": "0x6080604052600a600160146101000a81548160ff021916908360ff160217905550670de0b6b3a764000060025560006003556040518061014001604052807f7c9e1b50eb8ae0905834b97c966d23b15a3a12709e2ee0700e42860d406ae3ff81526020017f459c6a283286caa63c2132e2452ec367778953c60a7da416f8a2ffa3fadd23fb81526020017f5683068ff7454924ad865d79d0d75a207fd761d939733494c98ef2f03241477281526020017f2295cc19b047fc9daf094c6a1ba9d2ba975ebacfa7dcd2c7756d6c9d5d9c774681526020017fcc29964c306fe9127f81e25ace73a79b944294c34bc0b7783abff7abfc8618e481526020017f6897048fdf4be7fee3156e620b5e792da395ee474f9a6e94fe3a8438c28d476781526020017fc49276988b75473ff68cf4925a8f56eb2f527a8436879a08962745aee55a787281526020017fac546f8025ba8bd7f74e729a36bca9b8a56ab684e837c830570d9d8f1951693681526020017f524581af46a3c62dfc8b62348be4633c1e051c0513744e21c4599e7e59f39d5b81526020017fcba2bf339af0a5cac9f7a959a1378fe6d3cac0c96d53b7dd795c7bdc2cbfb9cf815250600890600a620001c9929190620002e4565b50348015620001d757600080fd5b5060405162001be838038062001be88339818101604052810190620001fd9190620003b2565b60016200021f62000213620002af60201b60201c565b620002da60201b60201c565b60000181905550816000806101000a81548173ffffffffffffffffffffffffffffffffffffffff021916908373ffffffffffffffffffffffffffffffffffffffff16021790555080600160006101000a81548173ffffffffffffffffffffffffffffffffffffffff021916908373ffffffffffffffffffffffffffffffffffffffff1602179055505050620003f9565b60007f9b779b17422d0df92223018b32b4d1fa46e071723d6817e2486d003becc55f0060001b905090565b6000819050919050565b82600a810192821562000316579160200282015b8281111562000315578251825591602001919060010190620002f8565b5b50905062000325919062000329565b5090565b5b80821115620003445760008160009055506001016200032a565b5090565b600080fd5b600073ffffffffffffffffffffffffffffffffffffffff82169050919050565b60006200037a826200034d565b9050919050565b6200038c816200036d565b81146200039857600080fd5b50565b600081519050620003ac8162000381565b92915050565b60008060408385031215620003cc57620003cb62000348565b5b6000620003dc858286016200039b565b9250506020620003ef858286016200039b565b9150509250929050565b6117df80620004096000396000f3fe6080604052600436106100865760003560e01c8063b6b55f2511610059578063b6b55f251461015b578063b8e7956414610177578063c2b40ae4146101a2578063c78784d7146101df578063d5400047146101fb57610086565b80631f79a1e91461008b57806345e0523f146100c857806349ce8997146100f35780638bca6d1614610130575b600080fd5b34801561009757600080fd5b506100b260048036038101906100ad9190610c16565b610238565b6040516100bf9190610c5e565b60405180910390f35b3480156100d457600080fd5b506100dd610258565b6040516100ea9190610c88565b60405180910390f35b3480156100ff57600080fd5b5061011a60048036038101906101159190610c16565b61025e565b6040516101279190610c5e565b60405180910390f35b34801561013c57600080fd5b5061014561027e565b6040516101529190610c88565b60405180910390f35b61017560048036038101906101709190610c16565b610284565b005b34801561018357600080fd5b5061018c6106c8565b6040516101999190610cbf565b60405180910390f35b3480156101ae57600080fd5b506101c960048036038101906101c49190610c16565b6106db565b6040516101d69190610c5e565b60405180910390f35b6101f960048036038101906101f49190610d23565b6106fb565b005b34801561020757600080fd5b50610222600480360381019061021d9190610db8565b610a89565b60405161022f9190610c88565b60405180910390f35b60066020528060005260406000206000915054906101000a900460ff1681565b60035481565b60076020528060005260406000206000915054906101000a900460ff1681565b60025481565b61028c610aa1565b60025434146102c7576040517f69640e7200000000000000000000000000000000000000000000000000000000815260040160405180910390fd5b6007600082815260200190815260200160002060009054906101000a900460ff161561031f576040517f91f196ce00000000000000000000000000000000000000000000000000000000815260040160405180910390fd5b600160149054906101000a900460ff16600261033b9190610f47565b60035410610375576040517fb48f2cf800000000000000000000000000000000000000000000000000000000815260040160405180910390fd5b600061037f610b73565b610387610b96565b60006003549050600085905060008061039e610bb9565b60005b600160149054906101000a900460ff1660ff168160ff161015610606578460056000600160149054906101000a900460ff1660ff1660ff1681526020019081526020016000208190555060006002876103fa9190610fc1565b036104835784935060088160ff16600a811061041957610418610ff2565b5b0154925060088160ff16600a811061043457610433610ff2565b5b0154888260ff16600a811061044c5761044b610ff2565b5b6020020181815250506000878260ff16600a811061046d5761046c610ff2565b5b602002019060ff16908160ff1681525050610504565b60088160ff16600a811061049a57610499610ff2565b5b01549350849250600560008260ff1660ff16815260200190815260200160002054888260ff16600a81106104d1576104d0610ff2565b5b6020020181815250506001878260ff16600a81106104f2576104f1610ff2565b5b602002019060ff16908160ff16815250505b838260006002811061051957610518610ff2565b5b602002018181525050828260016002811061053757610536610ff2565b5b60200201818152505060008060009054906101000a900473ffffffffffffffffffffffffffffffffffffffff1673ffffffffffffffffffffffffffffffffffffffff1663d622e5a4620249f0858e6040518463ffffffff1660e01b81526004016105a29291906110cc565b6020604051808303818786fa1580156105bf573d6000803e3d6000fd5b50505050506040513d601f19601f820116820180604052508101906105e4919061110a565b90508095506002876105f69190611137565b96505080806001019150506103a1565b508397506001600460008a815260200190815260200160002060006101000a81548160ff0219169083151502179055506003600081548092919061064990611168565b91905055506001600760008b815260200190815260200160002060006101000a81548160ff0219169083151502179055507fe6ab8667cb740d6c65a4ad321c031eb42f6c5085d5753238d1b2e1e370c134838888886040516106ad939291906112df565b60405180910390a150505050505050506106c5610ac4565b50565b600160149054906101000a900460ff1681565b60046020528060005260406000206000915054906101000a900460ff1681565b610703610aa1565b60008160006002811061071957610718610ff2565b5b6020020135905060008260016002811061073657610735610ff2565b5b602002013590506006600082815260200190815260200160002060009054906101000a900460ff161561079e576040517f08c379a000000000000000000000000000000000000000000000000000000000815260040161079590611375565b60405180910390fd5b6004600083815260200190815260200160002060009054906101000a900460ff166107fe576040517f08c379a00000000000000000000000000000000000000000000000000000000081526004016107f5906113e1565b60405180910390fd5b60003373ffffffffffffffffffffffffffffffffffffffff1690506000600160009054906101000a900473ffffffffffffffffffffffffffffffffffffffff1673ffffffffffffffffffffffffffffffffffffffff16888888604051806060016040528089815260200188815260200187815250604051602401610885949392919061155d565b6040516020818303038152906040526311479fea60e01b6020820180517bffffffffffffffffffffffffffffffffffffffffffffffffffffffff83818316178352505050506040516108d79190611615565b6000604051808303816000865af19150503d8060008114610914576040519150601f19603f3d011682016040523d82523d6000602084013e610919565b606091505b505090508061095d576040517f08c379a000000000000000000000000000000000000000000000000000000000815260040161095490611678565b60405180910390fd5b60016006600085815260200190815260200160002060006101000a81548160ff021916908315150217905550600033905060008173ffffffffffffffffffffffffffffffffffffffff166002546040516109b6906116be565b60006040518083038185875af1925050503d80600081146109f3576040519150601f19603f3d011682016040523d82523d6000602084013e6109f8565b606091505b5050905080610a3c576040517f08c379a0000000000000000000000000000000000000000000000000000000008152600401610a339061171f565b60405180910390fd5b7f884edad9ce6fa2440d8a54cc123490eb96d2768479d49ff9c7366125a94243643386604051610a6d929190611780565b60405180910390a1505050505050610a83610ac4565b50505050565b60056020528060005260406000206000915090505481565b610aa9610adf565b6002610abb610ab6610b20565b610b4b565b60000181905550565b6001610ad6610ad1610b20565b610b4b565b60000181905550565b610ae7610b55565b15610b1e576040517f3ee5aeb500000000000000000000000000000000000000000000000000000000815260040160405180910390fd5b565b60007f9b779b17422d0df92223018b32b4d1fa46e071723d6817e2486d003becc55f0060001b905090565b6000819050919050565b60006002610b69610b64610b20565b610b4b565b6000015414905090565b604051806101400160405280600a90602082028036833780820191505090505090565b604051806101400160405280600a90602082028036833780820191505090505090565b6040518060400160405280600290602082028036833780820191505090505090565b600080fd5b6000819050919050565b610bf381610be0565b8114610bfe57600080fd5b50565b600081359050610c1081610bea565b92915050565b600060208284031215610c2c57610c2b610bdb565b5b6000610c3a84828501610c01565b91505092915050565b60008115159050919050565b610c5881610c43565b82525050565b6000602082019050610c736000830184610c4f565b92915050565b610c8281610be0565b82525050565b6000602082019050610c9d6000830184610c79565b92915050565b600060ff82169050919050565b610cb981610ca3565b82525050565b6000602082019050610cd46000830184610cb0565b92915050565b600080fd5b600081905082602060020282011115610cfb57610cfa610cda565b5b92915050565b600081905082604060020282011115610d1d57610d1c610cda565b5b92915050565b6000806000806101408587031215610d3e57610d3d610bdb565b5b6000610d4c87828801610cdf565b9450506040610d5d87828801610d01565b93505060c0610d6e87828801610cdf565b925050610100610d8087828801610cdf565b91505092959194509250565b610d9581610ca3565b8114610da057600080fd5b50565b600081359050610db281610d8c565b92915050565b600060208284031215610dce57610dcd610bdb565b5b6000610ddc84828501610da3565b91505092915050565b7f4e487b7100000000000000000000000000000000000000000000000000000000600052601160045260246000fd5b60008160011c9050919050565b6000808291508390505b6001851115610e6b57808604811115610e4757610e46610de5565b5b6001851615610e565780820291505b8081029050610e6485610e14565b9450610e2b565b94509492505050565b600082610e845760019050610f40565b81610e925760009050610f40565b8160018114610ea85760028114610eb257610ee1565b6001915050610f40565b60ff841115610ec457610ec3610de5565b5b8360020a915084821115610edb57610eda610de5565b5b50610f40565b5060208310610133831016604e8410600b8410161715610f165782820a905083811115610f1157610f10610de5565b5b610f40565b610f238484846001610e21565b92509050818404811115610f3a57610f39610de5565b5b81810290505b9392505050565b6000610f5282610be0565b9150610f5d83610ca3565b9250610f8a7fffffffffffffffffffffffffffffffffffffffffffffffffffffffffffffffff8484610e74565b905092915050565b7f4e487b7100000000000000000000000000000000000000000000000000000000600052601260045260246000fd5b6000610fcc82610be0565b9150610fd783610be0565b925082610fe757610fe6610f92565b5b828206905092915050565b7f4e487b7100000000000000000000000000000000000000000000000000000000600052603260045260246000fd5b600060029050919050565b600081905092915050565b6000819050919050565b61104a81610be0565b82525050565b600061105c8383611041565b60208301905092915050565b6000602082019050919050565b61107e81611021565b611088818461102c565b925061109382611037565b8060005b838110156110c45781516110ab8782611050565b96506110b683611068565b925050600181019050611097565b505050505050565b60006060820190506110e16000830185611075565b6110ee6040830184610c79565b9392505050565b60008151905061110481610bea565b92915050565b6000602082840312156111205761111f610bdb565b5b600061112e848285016110f5565b91505092915050565b600061114282610be0565b915061114d83610be0565b92508261115d5761115c610f92565b5b828204905092915050565b600061117382610be0565b91507fffffffffffffffffffffffffffffffffffffffffffffffffffffffffffffffff82036111a5576111a4610de5565b5b600182019050919050565b6000600a9050919050565b600081905092915050565b6000819050919050565b6000602082019050919050565b6111e6816111b0565b6111f081846111bb565b92506111fb826111c6565b8060005b8381101561122c5781516112138782611050565b965061121e836111d0565b9250506001810190506111ff565b505050505050565b6000600a9050919050565b600081905092915050565b6000819050919050565b61125d81610ca3565b82525050565b600061126f8383611254565b60208301905092915050565b6000602082019050919050565b61129181611234565b61129b818461123f565b92506112a68261124a565b8060005b838110156112d75781516112be8782611263565b96506112c98361127b565b9250506001810190506112aa565b505050505050565b60006102a0820190506112f56000830186610c79565b61130260208301856111dd565b611310610160830184611288565b949350505050565b600082825260208201905092915050565b7f616c7265616479207370656e7400000000000000000000000000000000000000600082015250565b600061135f600d83611318565b915061136a82611329565b602082019050919050565b6000602082019050818103600083015261138e81611352565b9050919050565b7f6e6f7420726f6f74000000000000000000000000000000000000000000000000600082015250565b60006113cb600883611318565b91506113d682611395565b602082019050919050565b600060208201905081810360008301526113fa816113be565b9050919050565b82818337505050565b61141660408383611401565b5050565b600060029050919050565b600081905092915050565b6000819050919050565b61144660408383611401565b5050565b6000611456838361143a565b60408301905092915050565b600082905092915050565b6000604082019050919050565b6114838161141a565b61148d8184611425565b925061149882611430565b8060005b838110156114d1576114ae8284611462565b6114b8878261144a565b96506114c38361146d565b92505060018101905061149c565b505050505050565b600060039050919050565b600081905092915050565b6000819050919050565b6000602082019050919050565b61150f816114d9565b61151981846114e4565b9250611524826114ef565b8060005b8381101561155557815161153c8782611050565b9650611547836114f9565b925050600181019050611528565b505050505050565b600061016082019050611573600083018761140a565b611580604083018661147a565b61158d60c083018561140a565b61159b610100830184611506565b95945050505050565b600081519050919050565b600081905092915050565b60005b838110156115d85780820151818401526020810190506115bd565b60008484015250505050565b60006115ef826115a4565b6115f981856115af565b93506116098185602086016115ba565b80840191505092915050565b600061162182846115e4565b915081905092915050565b7f696e76616c69642070726f6f6600000000000000000000000000000000000000600082015250565b6000611662600d83611318565b915061166d8261162c565b602082019050919050565b6000602082019050818103600083015261169181611655565b9050919050565b50565b60006116a86000836115af565b91506116b382611698565b600082019050919050565b60006116c98261169b565b9150819050919050565b7f70617961626c65206661696c6564000000000000000000000000000000000000600082015250565b6000611709600e83611318565b9150611714826116d3565b602082019050919050565b60006020820190508181036000830152611738816116fc565b9050919050565b600073ffffffffffffffffffffffffffffffffffffffff82169050919050565b600061176a8261173f565b9050919050565b61177a8161175f565b82525050565b60006040820190506117956000830185611771565b6117a26020830184610c79565b939250505056fea264697066735822122028e78fce6cbbd023a6ed1ce848bb89b5085d3bf3e77b6e0afd87cd944b415f9464736f6c63430008180033",
  "linkReferences": {},
  "deployedLinkReferences": {}
}