{
  "_format": "hh-sol-artifact-1",
  "contractName": "Tornado",
  "sourceName": "contracts/Tornado.sol",
  "abi": [
    {
      "inputs": [
        {
          "internalType": "address",
          "name": "_hasher",
          "type": "address"
        }
      ],
      "stateMutability": "nonpayable",
      "type": "constructor"
    },
    {
      "inputs": [],
      "name": "DuplicateCommitmentHash",
      "type": "error"
    },
    {
      "inputs": [],
      "name": "IncorrectAmount",
      "type": "error"
    },
    {
      "inputs": [],
      "name": "ReentrancyGuardReentrantCall",
      "type": "error"
    },
    {
      "inputs": [],
      "name": "TreeFull",
      "type": "error"
    },
    {
      "anonymous": false,
      "inputs": [
        {
          "indexed": false,
          "internalType": "uint256",
          "name": "root",
          "type": "uint256"
        },
        {
          "indexed": false,
          "internalType": "uint256[10]",
          "name": "hashPairings",
          "type": "uint256[10]"
        },
        {
          "indexed": false,
          "internalType": "uint8[10]",
          "name": "pairDirection",
          "type": "uint8[10]"
        }
      ],
      "name": "Deposit",
      "type": "event"
    },
    {
      "inputs": [
        {
          "internalType": "uint256",
          "name": "",
          "type": "uint256"
        }
      ],
      "name": "commitments",
      "outputs": [
        {
          "internalType": "bool",
          "name": "",
          "type": "bool"
        }
      ],
      "stateMutability": "view",
      "type": "function"
    },
    {
      "inputs": [],
      "name": "denomination",
      "outputs": [
        {
          "internalType": "uint256",
          "name": "",
          "type": "uint256"
        }
      ],
      "stateMutability": "view",
      "type": "function"
    },
    {
      "inputs": [
        {
          "internalType": "uint256",
          "name": "_commitment",
          "type": "uint256"
        }
      ],
      "name": "deposit",
      "outputs": [],
      "stateMutability": "payable",
      "type": "function"
    },
    {
      "inputs": [
        {
          "internalType": "uint8",
          "name": "",
          "type": "uint8"
        }
      ],
      "name": "lastLevelHash",
      "outputs": [
        {
          "internalType": "uint256",
          "name": "",
          "type": "uint256"
        }
      ],
      "stateMutability": "view",
      "type": "function"
    },
    {
      "inputs": [],
      "name": "nextLeafIdx",
      "outputs": [
        {
          "internalType": "uint256",
          "name": "",
          "type": "uint256"
        }
      ],
      "stateMutability": "view",
      "type": "function"
    },
    {
      "inputs": [
        {
          "internalType": "uint256",
          "name": "",
          "type": "uint256"
        }
      ],
      "name": "nullifierHashes",
      "outputs": [
        {
          "internalType": "bool",
          "name": "",
          "type": "bool"
        }
      ],
      "stateMutability": "view",
      "type": "function"
    },
    {
      "inputs": [
        {
          "internalType": "uint256",
          "name": "",
          "type": "uint256"
        }
      ],
      "name": "roots",
      "outputs": [
        {
          "internalType": "bool",
          "name": "",
          "type": "bool"
        }
      ],
      "stateMutability": "view",
      "type": "function"
    },
    {
      "inputs": [],
      "name": "treeLevel",
      "outputs": [
        {
          "internalType": "uint8",
          "name": "",
          "type": "uint8"
        }
      ],
      "stateMutability": "view",
      "type": "function"
    }
  ],
  "bytecode": "0x6080604052600a600160146101000a81548160ff021916908360ff160217905550670de0b6b3a764000060025560006003556040518061014001604052807f7c9e1b50eb8ae0905834b97c966d23b15a3a12709e2ee0700e42860d406ae3ff81526020017f459c6a283286caa63c2132e2452ec367778953c60a7da416f8a2ffa3fadd23fb81526020017f5683068ff7454924ad865d79d0d75a207fd761d939733494c98ef2f03241477281526020017f2295cc19b047fc9daf094c6a1ba9d2ba975ebacfa7dcd2c7756d6c9d5d9c774681526020017fcc29964c306fe9127f81e25ace73a79b944294c34bc0b7783abff7abfc8618e481526020017f6897048fdf4be7fee3156e620b5e792da395ee474f9a6e94fe3a8438c28d476781526020017fc49276988b75473ff68cf4925a8f56eb2f527a8436879a08962745aee55a787281526020017fac546f8025ba8bd7f74e729a36bca9b8a56ab684e837c830570d9d8f1951693681526020017f524581af46a3c62dfc8b62348be4633c1e051c0513744e21c4599e7e59f39d5b81526020017fcba2bf339af0a5cac9f7a959a1378fe6d3cac0c96d53b7dd795c7bdc2cbfb9cf815250600890600a620001c99291906200024d565b50348015620001d757600080fd5b50604051620011c3380380620011c38339818101604052810190620001fd91906200031b565b600160008190555080600160006101000a81548173ffffffffffffffffffffffffffffffffffffffff021916908373ffffffffffffffffffffffffffffffffffffffff160217905550506200034d565b82600a81019282156200027f579160200282015b828111156200027e57825182559160200191906001019062000261565b5b5090506200028e919062000292565b5090565b5b80821115620002ad57600081600090555060010162000293565b5090565b600080fd5b600073ffffffffffffffffffffffffffffffffffffffff82169050919050565b6000620002e382620002b6565b9050919050565b620002f581620002d6565b81146200030157600080fd5b50565b6000815190506200031581620002ea565b92915050565b600060208284031215620003345762000333620002b1565b5b6000620003448482850162000304565b91505092915050565b610e66806200035d6000396000f3fe60806040526004361061007b5760003560e01c8063b6b55f251161004e578063b6b55f2514610150578063b8e795641461016c578063c2b40ae414610197578063d5400047146101d45761007b565b80631f79a1e91461008057806345e0523f146100bd57806349ce8997146100e85780638bca6d1614610125575b600080fd5b34801561008c57600080fd5b506100a760048036038101906100a291906107e0565b610211565b6040516100b49190610828565b60405180910390f35b3480156100c957600080fd5b506100d2610231565b6040516100df9190610852565b60405180910390f35b3480156100f457600080fd5b5061010f600480360381019061010a91906107e0565b610237565b60405161011c9190610828565b60405180910390f35b34801561013157600080fd5b5061013a610257565b6040516101479190610852565b60405180910390f35b61016a600480360381019061016591906107e0565b61025d565b005b34801561017857600080fd5b506101816106a2565b60405161018e9190610889565b60405180910390f35b3480156101a357600080fd5b506101be60048036038101906101b991906107e0565b6106b5565b6040516101cb9190610828565b60405180910390f35b3480156101e057600080fd5b506101fb60048036038101906101f691906108d0565b6106d5565b6040516102089190610852565b60405180910390f35b60066020528060005260406000206000915054906101000a900460ff1681565b60035481565b60076020528060005260406000206000915054906101000a900460ff1681565b60025481565b6102656106ed565b60025434146102a0576040517f69640e7200000000000000000000000000000000000000000000000000000000815260040160405180910390fd5b6007600082815260200190815260200160002060009054906101000a900460ff16156102f8576040517f91f196ce00000000000000000000000000000000000000000000000000000000815260040160405180910390fd5b600160149054906101000a900460ff1660026103149190610a5f565b6003541061034e576040517fb48f2cf800000000000000000000000000000000000000000000000000000000815260040160405180910390fd5b600061035861073d565b610360610760565b600060035490506000859050600080610377610783565b60005b600160149054906101000a900460ff1660ff168160ff1610156105e0578460056000600160149054906101000a900460ff1660ff1660ff1681526020019081526020016000208190555060006002876103d39190610ad9565b0361045c5784935060088160ff16600a81106103f2576103f1610b0a565b5b0154925060088160ff16600a811061040d5761040c610b0a565b5b0154888260ff16600a811061042557610424610b0a565b5b6020020181815250506000878260ff16600a811061044657610445610b0a565b5b602002019060ff16908160ff16815250506104dd565b60088160ff16600a811061047357610472610b0a565b5b01549350849250600560008260ff1660ff16815260200190815260200160002054888260ff16600a81106104aa576104a9610b0a565b5b6020020181815250506001878260ff16600a81106104cb576104ca610b0a565b5b602002019060ff16908160ff16815250505b83826000600281106104f2576104f1610b0a565b5b60200201818152505082826001600281106105105761050f610b0a565b5b6020020181815250506000600160009054906101000a900473ffffffffffffffffffffffffffffffffffffffff1673ffffffffffffffffffffffffffffffffffffffff1663d622e5a4620249f0858e6040518463ffffffff1660e01b815260040161057c929190610be4565b6020604051808303818786fa158015610599573d6000803e3d6000fd5b50505050506040513d601f19601f820116820180604052508101906105be9190610c22565b90508095506002876105d09190610c4f565b965050808060010191505061037a565b508397506001600460008a815260200190815260200160002060006101000a81548160ff0219169083151502179055506003600081548092919061062390610c80565b91905055506001600760008b815260200190815260200160002060006101000a81548160ff0219169083151502179055507fe6ab8667cb740d6c65a4ad321c031eb42f6c5085d5753238d1b2e1e370c1348388888860405161068793929190610df7565b60405180910390a1505050505050505061069f610733565b50565b600160149054906101000a900460ff1681565b60046020528060005260406000206000915054906101000a900460ff1681565b60056020528060005260406000206000915090505481565b600260005403610729576040517f3ee5aeb500000000000000000000000000000000000000000000000000000000815260040160405180910390fd5b6002600081905550565b6001600081905550565b604051806101400160405280600a90602082028036833780820191505090505090565b604051806101400160405280600a90602082028036833780820191505090505090565b6040518060400160405280600290602082028036833780820191505090505090565b600080fd5b6000819050919050565b6107bd816107aa565b81146107c857600080fd5b50565b6000813590506107da816107b4565b92915050565b6000602082840312156107f6576107f56107a5565b5b6000610804848285016107cb565b91505092915050565b60008115159050919050565b6108228161080d565b82525050565b600060208201905061083d6000830184610819565b92915050565b61084c816107aa565b82525050565b60006020820190506108676000830184610843565b92915050565b600060ff82169050919050565b6108838161086d565b82525050565b600060208201905061089e600083018461087a565b92915050565b6108ad8161086d565b81146108b857600080fd5b50565b6000813590506108ca816108a4565b92915050565b6000602082840312156108e6576108e56107a5565b5b60006108f4848285016108bb565b91505092915050565b7f4e487b7100000000000000000000000000000000000000000000000000000000600052601160045260246000fd5b60008160011c9050919050565b6000808291508390505b60018511156109835780860481111561095f5761095e6108fd565b5b600185161561096e5780820291505b808102905061097c8561092c565b9450610943565b94509492505050565b60008261099c5760019050610a58565b816109aa5760009050610a58565b81600181146109c057600281146109ca576109f9565b6001915050610a58565b60ff8411156109dc576109db6108fd565b5b8360020a9150848211156109f3576109f26108fd565b5b50610a58565b5060208310610133831016604e8410600b8410161715610a2e5782820a905083811115610a2957610a286108fd565b5b610a58565b610a3b8484846001610939565b92509050818404811115610a5257610a516108fd565b5b81810290505b9392505050565b6000610a6a826107aa565b9150610a758361086d565b9250610aa27fffffffffffffffffffffffffffffffffffffffffffffffffffffffffffffffff848461098c565b905092915050565b7f4e487b7100000000000000000000000000000000000000000000000000000000600052601260045260246000fd5b6000610ae4826107aa565b9150610aef836107aa565b925082610aff57610afe610aaa565b5b828206905092915050565b7f4e487b7100000000000000000000000000000000000000000000000000000000600052603260045260246000fd5b600060029050919050565b600081905092915050565b6000819050919050565b610b62816107aa565b82525050565b6000610b748383610b59565b60208301905092915050565b6000602082019050919050565b610b9681610b39565b610ba08184610b44565b9250610bab82610b4f565b8060005b83811015610bdc578151610bc38782610b68565b9650610bce83610b80565b925050600181019050610baf565b505050505050565b6000606082019050610bf96000830185610b8d565b610c066040830184610843565b9392505050565b600081519050610c1c816107b4565b92915050565b600060208284031215610c3857610c376107a5565b5b6000610c4684828501610c0d565b91505092915050565b6000610c5a826107aa565b9150610c65836107aa565b925082610c7557610c74610aaa565b5b828204905092915050565b6000610c8b826107aa565b91507fffffffffffffffffffffffffffffffffffffffffffffffffffffffffffffffff8203610cbd57610cbc6108fd565b5b600182019050919050565b6000600a9050919050565b600081905092915050565b6000819050919050565b6000602082019050919050565b610cfe81610cc8565b610d088184610cd3565b9250610d1382610cde565b8060005b83811015610d44578151610d2b8782610b68565b9650610d3683610ce8565b925050600181019050610d17565b505050505050565b6000600a9050919050565b600081905092915050565b6000819050919050565b610d758161086d565b82525050565b6000610d878383610d6c565b60208301905092915050565b6000602082019050919050565b610da981610d4c565b610db38184610d57565b9250610dbe82610d62565b8060005b83811015610def578151610dd68782610d7b565b9650610de183610d93565b925050600181019050610dc2565b505050505050565b60006102a082019050610e0d6000830186610843565b610e1a6020830185610cf5565b610e28610160830184610da0565b94935050505056fea2646970667358221220b292f233744a4d7fafb60a9d99df019634d2194196d4468e4667ba0801e36f1064736f6c63430008180033",
  "linkReferences": {},
  "deployedLinkReferences": {}
}