{
  "_format": "hh-sol-artifact-1",
  "contractName": "Tornado",
  "sourceName": "contracts/Tornado.sol",
  "abi": [
    {
      "inputs": [
        {
          "internalType": "address",
          "name": "_hasher",
          "type": "address"
        },
        {
          "internalType": "address",
          "name": "_verifier",
          "type": "address"
        }
      ],
      "stateMutability": "nonpayable",
      "type": "constructor"
    },
    {
      "inputs": [],
      "name": "DuplicateCommitmentHash",
      "type": "error"
    },
    {
      "inputs": [],
      "name": "IncorrectAmount",
      "type": "error"
    },
    {
      "inputs": [],
      "name": "ReentrancyGuardReentrantCall",
      "type": "error"
    },
    {
      "inputs": [],
      "name": "TreeFull",
      "type": "error"
    },
    {
      "anonymous": false,
      "inputs": [
        {
          "indexed": false,
          "internalType": "uint256",
          "name": "root",
          "type": "uint256"
        },
        {
          "indexed": false,
          "internalType": "uint256[10]",
          "name": "hashPairings",
          "type": "uint256[10]"
        },
        {
          "indexed": false,
          "internalType": "uint8[10]",
          "name": "pairDirection",
          "type": "uint8[10]"
        }
      ],
      "name": "Deposit",
      "type": "event"
    },
    {
      "anonymous": false,
      "inputs": [
        {
          "indexed": false,
          "internalType": "address",
          "name": "to",
          "type": "address"
        },
        {
          "indexed": false,
          "internalType": "uint256",
          "name": "nullifierHash",
          "type": "uint256"
        }
      ],
      "name": "Withdraw",
      "type": "event"
    },
    {
      "inputs": [
        {
          "internalType": "uint256",
          "name": "",
          "type": "uint256"
        }
      ],
      "name": "commitments",
      "outputs": [
        {
          "internalType": "bool",
          "name": "",
          "type": "bool"
        }
      ],
      "stateMutability": "view",
      "type": "function"
    },
    {
      "inputs": [],
      "name": "denomination",
      "outputs": [
        {
          "internalType": "uint256",
          "name": "",
          "type": "uint256"
        }
      ],
      "stateMutability": "view",
      "type": "function"
    },
    {
      "inputs": [
        {
          "internalType": "uint256",
          "name": "_commitment",
          "type": "uint256"
        }
      ],
      "name": "deposit",
      "outputs": [],
      "stateMutability": "payable",
      "type": "function"
    },
    {
      "inputs": [
        {
          "internalType": "uint8",
          "name": "",
          "type": "uint8"
        }
      ],
      "name": "lastLevelHash",
      "outputs": [
        {
          "internalType": "uint256",
          "name": "",
          "type": "uint256"
        }
      ],
      "stateMutability": "view",
      "type": "function"
    },
    {
      "inputs": [],
      "name": "nextLeafIdx",
      "outputs": [
        {
          "internalType": "uint256",
          "name": "",
          "type": "uint256"
        }
      ],
      "stateMutability": "view",
      "type": "function"
    },
    {
      "inputs": [
        {
          "internalType": "uint256",
          "name": "",
          "type": "uint256"
        }
      ],
      "name": "nullifierHashes",
      "outputs": [
        {
          "internalType": "bool",
          "name": "",
          "type": "bool"
        }
      ],
      "stateMutability": "view",
      "type": "function"
    },
    {
      "inputs": [
        {
          "internalType": "uint256",
          "name": "",
          "type": "uint256"
        }
      ],
      "name": "roots",
      "outputs": [
        {
          "internalType": "bool",
          "name": "",
          "type": "bool"
        }
      ],
      "stateMutability": "view",
      "type": "function"
    },
    {
      "inputs": [],
      "name": "treeLevel",
      "outputs": [
        {
          "internalType": "uint8",
          "name": "",
          "type": "uint8"
        }
      ],
      "stateMutability": "view",
      "type": "function"
    },
    {
      "inputs": [
        {
          "internalType": "uint256[2]",
          "name": "a",
          "type": "uint256[2]"
        },
        {
          "internalType": "uint256[2][2]",
          "name": "b",
          "type": "uint256[2][2]"
        },
        {
          "internalType": "uint256[2]",
          "name": "c",
          "type": "uint256[2]"
        },
        {
          "internalType": "uint256[2]",
          "name": "input",
          "type": "uint256[2]"
        }
      ],
      "name": "withdraw",
      "outputs": [],
      "stateMutability": "payable",
      "type": "function"
    }
  ],
  "bytecode": "0x6080604052600a600160146101000a81548160ff021916908360ff160217905550670de0b6b3a764000060025560006003556040518061014001604052807f7c9e1b50eb8ae0905834b97c966d23b15a3a12709e2ee0700e42860d406ae3ff81526020017f459c6a283286caa63c2132e2452ec367778953c60a7da416f8a2ffa3fadd23fb81526020017f5683068ff7454924ad865d79d0d75a207fd761d939733494c98ef2f03241477281526020017f2295cc19b047fc9daf094c6a1ba9d2ba975ebacfa7dcd2c7756d6c9d5d9c774681526020017fcc29964c306fe9127f81e25ace73a79b944294c34bc0b7783abff7abfc8618e481526020017f6897048fdf4be7fee3156e620b5e792da395ee474f9a6e94fe3a8438c28d476781526020017fc49276988b75473ff68cf4925a8f56eb2f527a8436879a08962745aee55a787281526020017fac546f8025ba8bd7f74e729a36bca9b8a56ab684e837c830570d9d8f1951693681526020017f524581af46a3c62dfc8b62348be4633c1e051c0513744e21c4599e7e59f39d5b81526020017fcba2bf339af0a5cac9f7a959a1378fe6d3cac0c96d53b7dd795c7bdc2cbfb9cf815250600890600a620001c9929190620002e4565b50348015620001d757600080fd5b5060405162001b6b38038062001b6b8339818101604052810190620001fd9190620003b2565b60016200021f62000213620002af60201b60201c565b620002da60201b60201c565b60000181905550816000806101000a81548173ffffffffffffffffffffffffffffffffffffffff021916908373ffffffffffffffffffffffffffffffffffffffff16021790555080600160006101000a81548173ffffffffffffffffffffffffffffffffffffffff021916908373ffffffffffffffffffffffffffffffffffffffff1602179055505050620003f9565b60007f9b779b17422d0df92223018b32b4d1fa46e071723d6817e2486d003becc55f0060001b905090565b6000819050919050565b82600a810192821562000316579160200282015b8281111562000315578251825591602001919060010190620002f8565b5b50905062000325919062000329565b5090565b5b80821115620003445760008160009055506001016200032a565b5090565b600080fd5b600073ffffffffffffffffffffffffffffffffffffffff82169050919050565b60006200037a826200034d565b9050919050565b6200038c816200036d565b81146200039857600080fd5b50565b600081519050620003ac8162000381565b92915050565b60008060408385031215620003cc57620003cb62000348565b5b6000620003dc858286016200039b565b9250506020620003ef858286016200039b565b9150509250929050565b61176280620004096000396000f3fe6080604052600436106100865760003560e01c8063b6b55f2511610059578063b6b55f251461015b578063b8e7956414610177578063c2b40ae4146101a2578063c78784d7146101df578063d5400047146101fb57610086565b80631f79a1e91461008b57806345e0523f146100c857806349ce8997146100f35780638bca6d1614610130575b600080fd5b34801561009757600080fd5b506100b260048036038101906100ad9190610bbd565b610238565b6040516100bf9190610c05565b60405180910390f35b3480156100d457600080fd5b506100dd610258565b6040516100ea9190610c2f565b60405180910390f35b3480156100ff57600080fd5b5061011a60048036038101906101159190610bbd565b61025e565b6040516101279190610c05565b60405180910390f35b34801561013c57600080fd5b5061014561027e565b6040516101529190610c2f565b60405180910390f35b61017560048036038101906101709190610bbd565b610284565b005b34801561018357600080fd5b5061018c6106b9565b6040516101999190610c66565b60405180910390f35b3480156101ae57600080fd5b506101c960048036038101906101c49190610bbd565b6106cc565b6040516101d69190610c05565b60405180910390f35b6101f960048036038101906101f49190610cca565b6106ec565b005b34801561020757600080fd5b50610222600480360381019061021d9190610d5f565b610a30565b60405161022f9190610c2f565b60405180910390f35b60066020528060005260406000206000915054906101000a900460ff1681565b60035481565b60076020528060005260406000206000915054906101000a900460ff1681565b60025481565b61028c610a48565b60025434146102c7576040517f69640e7200000000000000000000000000000000000000000000000000000000815260040160405180910390fd5b6007600082815260200190815260200160002060009054906101000a900460ff161561031f576040517f91f196ce00000000000000000000000000000000000000000000000000000000815260040160405180910390fd5b600160149054906101000a900460ff16600261033b9190610eee565b60035410610375576040517fb48f2cf800000000000000000000000000000000000000000000000000000000815260040160405180910390fd5b600061037f610b1a565b610387610b3d565b60006003549050600085905060008061039e610b60565b60005b600160149054906101000a900460ff1660ff168160ff1610156105f75784600560008360ff1660ff1681526020019081526020016000208190555060006002876103eb9190610f68565b036104745784935060088160ff16600a811061040a57610409610f99565b5b0154925060088160ff16600a811061042557610424610f99565b5b0154888260ff16600a811061043d5761043c610f99565b5b6020020181815250506000878260ff16600a811061045e5761045d610f99565b5b602002019060ff16908160ff16815250506104f5565b60088160ff16600a811061048b5761048a610f99565b5b01549350849250600560008260ff1660ff16815260200190815260200160002054888260ff16600a81106104c2576104c1610f99565b5b6020020181815250506001878260ff16600a81106104e3576104e2610f99565b5b602002019060ff16908160ff16815250505b838260006002811061050a57610509610f99565b5b602002018181525050828260016002811061052857610527610f99565b5b60200201818152505060008060009054906101000a900473ffffffffffffffffffffffffffffffffffffffff1673ffffffffffffffffffffffffffffffffffffffff1663d622e5a4620249f0858e6040518463ffffffff1660e01b8152600401610593929190611073565b6020604051808303818786fa1580156105b0573d6000803e3d6000fd5b50505050506040513d601f19601f820116820180604052508101906105d591906110b1565b90508095506002876105e791906110de565b96505080806001019150506103a1565b508397506001600460008a815260200190815260200160002060006101000a81548160ff0219169083151502179055506003600081548092919061063a9061110f565b91905055506001600760008b815260200190815260200160002060006101000a81548160ff0219169083151502179055507fe6ab8667cb740d6c65a4ad321c031eb42f6c5085d5753238d1b2e1e370c1348388888860405161069e93929190611286565b60405180910390a150505050505050506106b6610a6b565b50565b600160149054906101000a900460ff1681565b60046020528060005260406000206000915054906101000a900460ff1681565b6106f4610a48565b60008160006002811061070a57610709610f99565b5b6020020135905060008260016002811061072757610726610f99565b5b602002013590506006600082815260200190815260200160002060009054906101000a900460ff161561078f576040517f08c379a00000000000000000000000000000000000000000000000000000000081526004016107869061131c565b60405180910390fd5b6004600083815260200190815260200160002060009054906101000a900460ff166107ef576040517f08c379a00000000000000000000000000000000000000000000000000000000081526004016107e690611388565b60405180910390fd5b60003373ffffffffffffffffffffffffffffffffffffffff169050600160009054906101000a900473ffffffffffffffffffffffffffffffffffffffff1673ffffffffffffffffffffffffffffffffffffffff166311479fea8888886040518060600160405280898152602001888152602001878152506040518563ffffffff1660e01b81526004016108859493929190611504565b602060405180830381865afa1580156108a2573d6000803e3d6000fd5b505050506040513d601f19601f820116820180604052508101906108c69190611577565b610905576040517f08c379a00000000000000000000000000000000000000000000000000000000081526004016108fc906115f0565b60405180910390fd5b60016006600084815260200190815260200160002060006101000a81548160ff021916908315150217905550600033905060008173ffffffffffffffffffffffffffffffffffffffff1660025460405161095e90611641565b60006040518083038185875af1925050503d806000811461099b576040519150601f19603f3d011682016040523d82523d6000602084013e6109a0565b606091505b50509050806109e4576040517f08c379a00000000000000000000000000000000000000000000000000000000081526004016109db906116a2565b60405180910390fd5b7f884edad9ce6fa2440d8a54cc123490eb96d2768479d49ff9c7366125a94243643385604051610a15929190611703565b60405180910390a15050505050610a2a610a6b565b50505050565b60056020528060005260406000206000915090505481565b610a50610a86565b6002610a62610a5d610ac7565b610af2565b60000181905550565b6001610a7d610a78610ac7565b610af2565b60000181905550565b610a8e610afc565b15610ac5576040517f3ee5aeb500000000000000000000000000000000000000000000000000000000815260040160405180910390fd5b565b60007f9b779b17422d0df92223018b32b4d1fa46e071723d6817e2486d003becc55f0060001b905090565b6000819050919050565b60006002610b10610b0b610ac7565b610af2565b6000015414905090565b604051806101400160405280600a90602082028036833780820191505090505090565b604051806101400160405280600a90602082028036833780820191505090505090565b6040518060400160405280600290602082028036833780820191505090505090565b600080fd5b6000819050919050565b610b9a81610b87565b8114610ba557600080fd5b50565b600081359050610bb781610b91565b92915050565b600060208284031215610bd357610bd2610b82565b5b6000610be184828501610ba8565b91505092915050565b60008115159050919050565b610bff81610bea565b82525050565b6000602082019050610c1a6000830184610bf6565b92915050565b610c2981610b87565b82525050565b6000602082019050610c446000830184610c20565b92915050565b600060ff82169050919050565b610c6081610c4a565b82525050565b6000602082019050610c7b6000830184610c57565b92915050565b600080fd5b600081905082602060020282011115610ca257610ca1610c81565b5b92915050565b600081905082604060020282011115610cc457610cc3610c81565b5b92915050565b6000806000806101408587031215610ce557610ce4610b82565b5b6000610cf387828801610c86565b9450506040610d0487828801610ca8565b93505060c0610d1587828801610c86565b925050610100610d2787828801610c86565b91505092959194509250565b610d3c81610c4a565b8114610d4757600080fd5b50565b600081359050610d5981610d33565b92915050565b600060208284031215610d7557610d74610b82565b5b6000610d8384828501610d4a565b91505092915050565b7f4e487b7100000000000000000000000000000000000000000000000000000000600052601160045260246000fd5b60008160011c9050919050565b6000808291508390505b6001851115610e1257808604811115610dee57610ded610d8c565b5b6001851615610dfd5780820291505b8081029050610e0b85610dbb565b9450610dd2565b94509492505050565b600082610e2b5760019050610ee7565b81610e395760009050610ee7565b8160018114610e4f5760028114610e5957610e88565b6001915050610ee7565b60ff841115610e6b57610e6a610d8c565b5b8360020a915084821115610e8257610e81610d8c565b5b50610ee7565b5060208310610133831016604e8410600b8410161715610ebd5782820a905083811115610eb857610eb7610d8c565b5b610ee7565b610eca8484846001610dc8565b92509050818404811115610ee157610ee0610d8c565b5b81810290505b9392505050565b6000610ef982610b87565b9150610f0483610c4a565b9250610f317fffffffffffffffffffffffffffffffffffffffffffffffffffffffffffffffff8484610e1b565b905092915050565b7f4e487b7100000000000000000000000000000000000000000000000000000000600052601260045260246000fd5b6000610f7382610b87565b9150610f7e83610b87565b925082610f8e57610f8d610f39565b5b828206905092915050565b7f4e487b7100000000000000000000000000000000000000000000000000000000600052603260045260246000fd5b600060029050919050565b600081905092915050565b6000819050919050565b610ff181610b87565b82525050565b60006110038383610fe8565b60208301905092915050565b6000602082019050919050565b61102581610fc8565b61102f8184610fd3565b925061103a82610fde565b8060005b8381101561106b5781516110528782610ff7565b965061105d8361100f565b92505060018101905061103e565b505050505050565b6000606082019050611088600083018561101c565b6110956040830184610c20565b9392505050565b6000815190506110ab81610b91565b92915050565b6000602082840312156110c7576110c6610b82565b5b60006110d58482850161109c565b91505092915050565b60006110e982610b87565b91506110f483610b87565b92508261110457611103610f39565b5b828204905092915050565b600061111a82610b87565b91507fffffffffffffffffffffffffffffffffffffffffffffffffffffffffffffffff820361114c5761114b610d8c565b5b600182019050919050565b6000600a9050919050565b600081905092915050565b6000819050919050565b6000602082019050919050565b61118d81611157565b6111978184611162565b92506111a28261116d565b8060005b838110156111d35781516111ba8782610ff7565b96506111c583611177565b9250506001810190506111a6565b505050505050565b6000600a9050919050565b600081905092915050565b6000819050919050565b61120481610c4a565b82525050565b600061121683836111fb565b60208301905092915050565b6000602082019050919050565b611238816111db565b61124281846111e6565b925061124d826111f1565b8060005b8381101561127e578151611265878261120a565b965061127083611222565b925050600181019050611251565b505050505050565b60006102a08201905061129c6000830186610c20565b6112a96020830185611184565b6112b761016083018461122f565b949350505050565b600082825260208201905092915050565b7f616c7265616479207370656e7400000000000000000000000000000000000000600082015250565b6000611306600d836112bf565b9150611311826112d0565b602082019050919050565b60006020820190508181036000830152611335816112f9565b9050919050565b7f6e6f7420726f6f74000000000000000000000000000000000000000000000000600082015250565b60006113726008836112bf565b915061137d8261133c565b602082019050919050565b600060208201905081810360008301526113a181611365565b9050919050565b82818337505050565b6113bd604083836113a8565b5050565b600060029050919050565b600081905092915050565b6000819050919050565b6113ed604083836113a8565b5050565b60006113fd83836113e1565b60408301905092915050565b600082905092915050565b6000604082019050919050565b61142a816113c1565b61143481846113cc565b925061143f826113d7565b8060005b83811015611478576114558284611409565b61145f87826113f1565b965061146a83611414565b925050600181019050611443565b505050505050565b600060039050919050565b600081905092915050565b6000819050919050565b6000602082019050919050565b6114b681611480565b6114c0818461148b565b92506114cb82611496565b8060005b838110156114fc5781516114e38782610ff7565b96506114ee836114a0565b9250506001810190506114cf565b505050505050565b60006101608201905061151a60008301876113b1565b6115276040830186611421565b61153460c08301856113b1565b6115426101008301846114ad565b95945050505050565b61155481610bea565b811461155f57600080fd5b50565b6000815190506115718161154b565b92915050565b60006020828403121561158d5761158c610b82565b5b600061159b84828501611562565b91505092915050565b7f696e76616c69642070726f6f6600000000000000000000000000000000000000600082015250565b60006115da600d836112bf565b91506115e5826115a4565b602082019050919050565b60006020820190508181036000830152611609816115cd565b9050919050565b600081905092915050565b50565b600061162b600083611610565b91506116368261161b565b600082019050919050565b600061164c8261161e565b9150819050919050565b7f70617961626c65206661696c6564000000000000000000000000000000000000600082015250565b600061168c600e836112bf565b915061169782611656565b602082019050919050565b600060208201905081810360008301526116bb8161167f565b9050919050565b600073ffffffffffffffffffffffffffffffffffffffff82169050919050565b60006116ed826116c2565b9050919050565b6116fd816116e2565b82525050565b600060408201905061171860008301856116f4565b6117256020830184610c20565b939250505056fea264697066735822122011b91bf6ea403cb6128ecef663280e69d21d114dc37e332870e63e2d14057cd564736f6c63430008180033",
  "linkReferences": {},
  "deployedLinkReferences": {}
}